S00C0000766F69642E7372656366
S11300000C9469000C94A90A0C94D00A0C94020371
S11300100C9402030C9402030C9491000C942C0A8B
S11300200C9491000C9491000C9491000C94410256
S11300300C9491000C9491000C9491000C949100F8
S11300400C94F70A0C9491000C9481060C94B3065A
S11300500C9491000C9491000C9491000C949100D8
S11300600C9491000C94910049044F0459046704C2
S113007069046F047904870499049B040200000056
S11300800800020100000304070000000000000053
S1130090000102040810204080010204081020011D
S11300A002040810200404040404040404020202E8
S11300B002020203030303030300000000250028D7
S11300C0002B0000000000240027002A0000290261
S11300D0E30611241FBECFEFD8E0DEBFCDBF11E091
S11300E0A0E0B1E0EEECFAE102C005900D92A83375
S11300F0B107D9F722E0A8E3B1E001C01D92AB3704
S1130100B207E1F710E0C9E6D0E004C02197FE0190
S11301100E94310DC736D107C9F70E9411070C940C
S1130120650D0C94000081E090E09093550180935C
S11301305401089581E090E090935301809352011B
S113014008956DE071E080EC91E00E9463076FEF29
S113015070E085E00E94E80B60E070E086E00C94BB
S1130160E80B61E171E080EC91E00E94630760E0DC
S113017070E085E00E94E80B6FEF70E086E00C947D
S1130180E80B66E57DEF88E391E00E94B80484E61D
S113019090E00E94A20B6AEA72E088E391E00C947A
S11301A0B804CF93DF93EB0120E030E0A901BC0158
S11301B08CE00E947507BE01DD0F880B990B0E942D
S11301C0660B8CE00E94170A61E070E080E090E02A
S11301D0DF91CF910C94660B6AEF70E08091060179
S11301E0909107010E94D1006AEF70E080910201B2
S11301F0909103010E94D1006AEF70E080910201A6
S1130200909103010E94D1008CE00E94170A6AEFCA
S113021070E080E090E00E94660B6AEF70E08091ED
S11302200601909107010E94D1006AEF70E080916D
S11302300201909103010E94D1006AEF70E0809165
S11302400201909103010E94D1008CE00E94170AE0
S11302506AEF70E080E090E00E94660B6AEF70E065
S113026080910001909101010E94D1006AEF70E039
S113027080910001909101010E94D1006AEF70E029
S113028080910001909101010E94D1006AEF70E019
S113029080910001909101010E94D10064EF71E00E
S11302A080910001909101010E94D1008CE00E9494
S11302B0170A64EF71E080E090E00E94660B6AEF39
S11302C070E080910201909103010E94D1006AEFD5
S11302D070E080910201909103010E94D1006AEFC5
S11302E070E080910201909103010E94D1006AEFB5
S11302F070E080910201909103010E94D1006AEFA5
S113030070E080910401909105010E94D1006AEF90
S113031070E080910401909105010E94D1006AEF80
S113032070E080910401909105010E94D1006AEF70
S113033070E080910401909105010E94D1006AEF60
S113034070E080910601909107010E94D1006AEF4C
S113035070E080910601909107010E94D1006AEF3C
S113036070E080910601909107010E94D1006AEF2C
S113037070E080910601909107010E94D10064EF22
S113038071E080910601909107010E94D1008CE0F8
S11303900E94170A64EF71E080E090E00C94660B11
S11303A026E040E855E260E070E080EC91E00E94D5
S11303B01C064AE050E060E070E088E391E00E94AF
S11303C0B20343E050E063E970E081E00E94890AEF
S11303D043E050E06AE970E080E00E94890A61E04D
S11303E08CE00C94700C0E94B100809154019091A7
S11303F05501019731F410925501109254010E9455
S1130400C10080915201909153010197E1F410923F
S11304105301109252010E94A10064EF71E080E048
S113042090E00E94660B0E94EC0064EF71E080E0B3
S113043090E00E94660B0E94B10064EF71E080E0DE
S113044090E00E94660B64EF71E080E090E00C9411
S1130450660BEF92FF920F931F938BE0E82EF12C23
S113046009E010E02AE030E048E050E060E078E0A5
S113047088E391E00E947C031F910F91FF90EF901D
S113048008951F920F920FB60F9211242F933F934A
S11304904F935F936F937F938F939F93AF93BF9388
S11304A0EF93FF938091570187FF05C01092850059
S11304B0109284001BC020915701022E000C330BB4
S11304C08091560190E02817390784F480915701F0
S11304D0082E000C990BFC01EE0FFF1F8E0F9F1FBF
S11304E0FC01E85AFE4F808186FD15C080915701BA
S11304F08F5F8093570120915701022E000C330B1C
S11305008091560190E028173907C4F4809157016F
S11305108C3064F113C080915701082E000C990BA4
S1130520FC01EE0FFF1F8E0F9F1FFC01E85AFE4FC8
S1130530808160E08F730E94AC0CD8CF80918400DE
S113054090918500049680349C4918F480E49CE9D9
S113055005C0809184009091850004969093890051
S1130560809388008FEF809357013BC020918400D3
S11305703091850080915701082E000C990BFC01E5
S1130580EE0FFF1F8E0F9F1FFC01E85AFE4F818163
S11305909281820F931F90938900809388008091A9
S11305A05701082E000C990BFC01EE0FFF1F8E0F54
S11305B09F1FFC01E85AFE4F808186FF12C0809184
S11305C05701082E000C990BFC01EE0FFF1F8E0F34
S11305D09F1FFC01E85AFE4F808161E08F730E94E7
S11305E0AC0CFF91EF91BF91AF919F918F917F914F
S11305F06F915F914F913F912F910F900FBE0F908C
S11306001F9018951F920F920FB60F9211242F93DB
S11306103F934F935F936F937F938F939F93AF9386
S1130620BF93EF93FF93E091BE01F091BF01309728
S113063009F451C0968DA685B785858591FF04C0C0
S11306409C91892329F447C09C91892309F043C0D4
S1130650A389B4899C918589809589238C93868903
S113066097890197F1F7608D718DA685B7855585BA
S113067038E020E0CB010197F1F7822F90E09595C7
S11306808795282F4C91452309F02068315091F724
S1130690868D81FD209580917D0190E001968F7378
S11306A0992730917C01381749F0A0917D01B0E081
S11306B0A258BE4F2C9380937D0103C0868D816028
S11306C0868F828D938D0197F1F7A389B4899C91CC
S11306D08589892B8C93FF91EF91BF91AF919F9165
S11306E08F917F916F915F914F913F912F910F90D7
S11306F00FBE0F901F901895EF92FF920F931F93C8
S1130700CF93DF93EC01842F1B861A8619821882FB
S11307101E8A1F8A188E198E7F836E834C875D878D
S11307203F872E87198B088BFB8AEA8A61E00E9437
S1130730700C61E08E850E94700C61E088890E94D3
S1130740700C61E08A890E94700C1D8A1C8A84E006
S113075090E099878887DF91CF911F910F91FF9047
S1130760EF900895CF92DF92EF92FF92CF93DF93B1
S1130770EC016A017B012E813F81032E000C440BA6
S1130780550B60E077E883E993E00E94120DCA01FB
S1130790B901A70196010E94120D2A833B834C8361
S11307A05D83DF91CF91FF90EF90DF90CF9008951C
S11307B00F931F93CF93DF93EC018B018885998569
S11307C00297F1F46130710569F024F4672BC1F4E8
S11307D060E009C06230710559F06330710581F43D
S11307E060E007C061E08C850E94AC0C61E005C04C
S11307F061E08C850E94AC0C60E08E850E94AC0C9C
S1130800888599850497B9F501301105B1F04CF448
S11308100115110581F561E08C850E94AC0C60E046
S113082011C002301105B9F00330110521F561E062
S11308308C850E94AC0C60E013C060E08C850E9443
S1130840AC0C61E08E850E94AC0C61E088890E944A
S1130850AC0C60E00DC060E08C850E94AC0C61E0E3
S11308608E850E94AC0C60E088890E94AC0C61E02B
S11308708A890E94AC0C88859985059709F073C014
S11308800A30110508F06FC0F801EC5CFF4F0C94BE
S1130890310D60E08C850E94AC0C61E051C060E0D9
S11308A08C850E94AC0C61E08E850E94AC0C60E0EB
S11308B04BC060E08C850E94AC0C61E08E850E9488
S11308C0AC0C60E088890E94AC0C61E041C060E03F
S11308D001C061E08C850E94AC0C61E005C061E060
S11308E08C850E94AC0C60E08E850E94AC0C60E0AC
S11308F009C061E08C850E94AC0C60E08E850E948A
S1130900AC0C61E088890E94AC0C61E00DC061E030
S11309108C850E94AC0C60E08E850E94AC0C61E07A
S113092088890E94AC0C60E08A890E94AC0C60E06B
S113093013C061E001C060E08C850E94AC0C60E0F3
S11309408E850E94AC0C61E088890E94AC0C60E04A
S11309508A890E94AC0C61E08C89DF91CF911F9150
S11309600F910C94AC0CDF91CF911F910F910895CE
S11309704F925F926F927F928F929F92AF92BF92AB
S1130980CF92DF92EF92FF920F931F93CF93DF9357
S1130990EC018B0177FF04C000271127061B170BFE
S11309A0161617062CF481E090E09983888304C01E
S11309B0672B11F01982188284E0E82EF12C9AE05A
S11309C0C92ED12C0115110509F449C00E94410B0F
S11309D08E889F88A88CB98C2B013C014818590833
S11309E06A087B088A809B80AC80BD8048145904C7
S11309F06A047B0438F36E8B7F8B888F998F2881F0
S1130A0039818A859B852130310559F401969B876C
S1130A108A872E813F818217930771F41B861A8679
S1130A200BC0892B21F48E819F819B878A878A85BD
S1130A309B8501979B878A870150110928853985F1
S1130A408A859B852530310511F4B60101C0B701B3
S1130A500E94DC0CBC01CE010E94D803B3CFDF910D
S1130A60CF911F910F91FF90EF90DF90CF90BF90A7
S1130A70AF909F908F907F906F905F904F9008956C
S1130A80FC01918D228D892F90E0805C9F4F821B09
S1130A9091098F7399270895FC01918D828D981780
S1130AA031F0828DE80FF11D858D90E008958FEF70
S1130AB09FEF0895FC01918D828D981761F0828DCE
S1130AC0DF01A80FB11D5D968C91928D9F5F9F737E
S1130AD0928F90E008958FEF9FEF0895FC01538D5E
S1130AE0448D252F30E0842F90E0821B930B541704
S1130AF010F0CF9608950197089589ED96E0892B1B
S1130B0049F080E090E0892B29F00E94D9068111F8
S1130B100C9400000895FC01848DDF01A80FB11D21
S1130B20A35ABF4F2C91848D90E001968F7399271F
S1130B30848FA689B7892C93A089B1898C918370FD
S1130B4080648C93938D848D981306C00288F389F6
S1130B50E02D80818F7D80830895EF92FF920F9323
S1130B601F93CF93DF93EC0181E0888F9B8D8C8D55
S1130B70981305C0E889F989808185FD26C0F62E81
S1130B800B8D10E00F5F1F4F0F731127E02E8C8D1C
S1130B90E8120CC00FB607FCFACFE889F989808106
S1130BA085FFF5CFCE010E948B05F1CF8B8DFE0121
S1130BB0E80FF11DE35AFF4FF0829FB7F8940B8FB3
S1130BC0EA89FB89808180620AC09FB7F894EE8924
S1130BD0FF896083E889F9898081837080648083D8
S1130BE09FBF81E090E0DF91CF911F910F91FF9023
S1130BF0EF900895CF93DF93EC01888D8823C9F09B
S1130C00EA89FB89808185FD05C0A889B9898C9111
S1130C1086FD0FC00FB607FCF5CF808185FFF2CFAC
S1130C20A889B9898C9185FFEDCFCE010E948B05EF
S1130C30E7CFDF91CF910895CF92DF92EF92FF92A9
S1130C401F93CF93DF93EC016A017B01122FE88994
S1130C50F98982E080834115514E61057105B1F037
S1130C6060E079E08DE390E0A70196010E94F00C2A
S1130C70DA01C9010197A109B109B695A79597951C
S1130C8087959C01211580E13807A8F0E889F98946
S1130C90108260E874E88EE190E0A70196010E945A
S1130CA0F00CDA01C9010197A109B109B695A7951C
S1130CB0979587959C01EC85FD853083EE85FF85AE
S1130CC02083188EEC89FD891083EA89FB89808151
S1130CD080618083EA89FB89808188608083EA89D6
S1130CE0FB89808180688083EA89FB8980818F7D8C
S1130CF08083DF91CF911F91FF90EF90DF90CF9091
S1130D0008951F920F920FB60F9211242F938F9371
S1130D109F93EF93FF93E091D001F091D1018081F3
S1130D20E091D601F091D70182FD12C090818091AB
S1130D30D9018F5F8F732091DA01821751F0E0910E
S1130D40D901F0E0E054FE4F958F8093D90101C0A2
S1130D508081FF91EF919F918F912F910F900FBE02
S1130D600F901F9018951F920F920FB60F92112497
S1130D702F933F934F935F936F937F938F939F939F
S1130D80AF93BF93EF93FF9380EC91E00E948B05A8
S1130D90FF91EF91BF91AF919F918F917F916F914F
S1130DA05F914F913F912F910F900FBE0F901F9025
S1130DB0189580EC91E00E94400521E0892B09F40C
S1130DC020E0822F0895E0ECF1E01382128288EE95
S1130DD093E0A0E0B0E084839583A683B7838BE19E
S1130DE091E09183808385EC90E09587848784ECFF
S1130DF090E09787868780EC90E0918B808B81ECE4
S1130E0090E0938B828B82EC90E0958B848B86ECC4
S1130E1090E0978B868B118E128E138E148E08950C
S1130E2008950E94AD0B0E9410070E94D001CDE7E7
S1130E30D5E00E94F3012097E1F30E947D05F9CFEC
S1130E40CF92DF92EF92FF920F931F93CF93DF9392
S1130E506C017A018B01C0E0D0E0CE15DF0581F092
S1130E60D8016D918D01D601ED91FC910190F08135
S1130E70E02DC6010995892B11F02196EECF7E0154
S1130E80C701DF91CF911F910F91FF90EF90DF90F9
S1130E90CF9008956115710579F0FB010190002050
S1130EA0E9F73197AF01461B570BDC01ED91FC913B
S1130EB00280F381E02D099480E090E0089569E2D6
S1130EC071E00C944A070F931F93CF93DF93EC01C7
S1130ED00E944A078C01CE010E945F07800F911F78
S1130EE0DF91CF911F910F9108954F925F926F926E
S1130EF07F928F929F92AF92BF92CF92DF92EF92A6
S1130F00FF920F931F93CF93DF9300D000D01F92D3
S1130F10CDB7DEB78B0129013A01909108018917F9
S1130F2021F09F3F09F04DC205C0ECE7F0E02491A9
S1130F302D8384C080930801ECE7F0E094919D83B5
S1130F409F3F09F43EC2913009F44DC058F19230EC
S1130F5009F074C01092B0001092B1009091B000EA
S1130F6092609093B0009091B10091609093B10021
S1130F70282F30E0F901EB55FF4FE491F0E0EE0F3C
S1130F80FF1FE754FF4F4591549150935F024093E4
S1130F905E02F901EF56FF4FE491E0935D0292E0A7
S1130FA09D830BC214BC15BC94B5926094BD95B5D9
S1130FB0916095BD282F30E0F901EB55FF4FE49186
S1130FC0F0E0EE0FFF1FE754FF4F4591549150930B
S1130FD06D0240936C02F901EF56FF4FE491E093E8
S1130FE06B021D82EAC110928000109281009091E0
S1130FF0810098609093810090918100916090931A
S11310008100282F30E0F901EB55FF4FE491F0E027
S1131010EE0FFF1FE754FF4F459154915093660222
S113102040936502F901EF56FF4FE491E0936402A7
S113103061E00E94700C21E02D8389C02D8127FD81
S1131040C0C161E00E94700C8D818D7F09F07FC06A
S11310504801A12CB12C60E072E18AE790E0A5017F
S113106094010E94120D29833A834B835C836901A6
S11310707A0181E0C81AD108E108F1089FEFC91686
S1131080D104E104F10409F008F44EC060E472E410
S11310908FE090E0A50194010E94120D69017A018C
S11310A081E0C81AD108E108F1089D81923009F560
S11310B02FEFC216D104E104F10409F008F444C18D
S11310C060E970ED83E090E0A50194010E94120DA7
S11310D069017A0181E0C81AD108E108F1089FEF9B
S11310E0C916D104E104F10411F008F0BAC083E098
S11310F027C02FEFC216D104E104F104B9F0B0F017
S113110068E478EE81E090E0A50194010E94120D5C
S113111069017A0181E0C81AD108E108F1089D81CA
S1131120992309F413C1DCC081E001C082E09D81F0
S1131130911106C095B5987F892B85BD44C085E083
S11311409091B100987F892B8093B1003CC04801F5
S1131150A12CB12C60E072E18AE790E0A501940132
S11311600E94120D69017A0181E0C81AD108E108D0
S1131170F108C114D10491E0E906F10488F068E4AF
S113118078EE81E090E0A50194010E94120D6901BE
S11311907A0181E0C81AD108E108F10883E001C0AE
S11311A081E09D81913079F490918100987F892B21
S11311B080938100411451046104710449F42FEFB8
S11311C03FEFA9012CC0411451046104710471F072
S11311D0D801AA0FBB1FA30192010E94370D28EE6C
S11311E033E040E050E00E94F00C03C02FEF3FEFEB
S11311F0A9018D81813099F0823019F18111E1C00A
S1131200C7BC20936E0230936F02409370025093D8
S1131210710280916E00826080936E00D2C0D09281
S11312208900C0928800209367023093680240933B
S1131230690250936A0280916F00826080936F000C
S1131240C0C0C092B3002093600230936102409307
S113125062025093630280917000826080937000F8
S1131260B0C068E478EE81E090E0A50194010E94AA
S1131270120D69017A0191E0C91AD108E108F10857
S11312802FEFC216D104E104F10441F138F164E214
S113129074EF80E090E0A50194010E94120D6901B1
S11312A07A0181E0C81AD108E108F1089FEFC91654
S11312B0D104E104F10409F008F441CF62E17AE7D2
S11312C080E090E0A50194010E94120D69017A0169
S11312D081E0C81AD108E108F10819C084E030CFD0
S11312E02FEFC216D104E104F10409F008F463C03D
S11312F062E17AE780E090E0A50194010E94120D7A
S113130069017A0191E0C91AD108E108F1088FEF67
S1131310C816D104E104F104A9F0A0F089819A81EE
S1131320AB81BC812AE0B595A795979587952A95B9
S1131330D1F76C017D0121E0C21AD108E108F1085E
S113134087E0FECE86E0FCCE82E0FACE8FEFC816B0
S1131350D104E104F10469F160F162E17AE780E02B
S113136090E0A50194010E94120D69017A0191E0B7
S1131370C91AD108E108F1082FEFC216D104E1041B
S1131380F104A9F0A0F089819A81AB81BC813AE093
S1131390B595A795979587953A95D1F76C017D01F9
S11313A021E0C21AD108E108F10885E0C3CE84E047
S11313B0C1CE83E0BFCE84E0BACE61E00E94700C5F
S11313C047CE0F900F900F900F900F90DF91CF9119
S11313D01F910F91FF90EF90DF90CF90BF90AF904F
S11313E09F908F907F906F905F904F900895813081
S11313F039F018F0823051F0089510926E0008957B
S113140080916F008D7F80936F00089580917000AC
S11314108D7F8093700081E08093B0008091B10053
S1131420887F84608093B1001092B3000895CF93B5
S1131430C82F80910801C81307C0ECE7F0E084913D
S11314409FEF9093080101C08FEF0E94F70960E0BD
S11314508C2FCF910C94AC0C1F920F920FB60F925D
S113146011242F933F934F935F936F937F938F93A5
S11314709F93AF93BF93EF93FF93809160029091FA
S11314806102A0916202B0916302892B8A2B8B2B9B
S113149051F190915D02E0915E02F0915F028081D2
S11314A0892780838091600290916102A0916202F9
S11314B0B0916302181619061A061B06C4F480912B
S11314C0600290916102A0916202B091630201975F
S11314D0A109B1098093600290936102A093620212
S11314E0B093630204C0809108010E94170AFF911F
S11314F0EF91BF91AF919F918F917F916F915F9188
S11315004F913F912F910F900FBE0F901F90189500
S113151008958230E8F4E82FF0E0EE0FFF1FE75F54
S1131520FE4F71836083813041F0809169008C7F2C
S1131530482B40936900E89A089580916900837F5D
S1131540440F551F440F551F482B40936900E99AD7
S113155008951F920F920FB60F9211242F933F9369
S11315604F935F936F937F938F939F93AF93BF93A7
S1131570EF93FF93E0910901F0910A010995FF911E
S1131580EF91BF91AF919F918F917F916F915F91F7
S11315904F913F912F910F900FBE0F901F90189570
S11315A01F920F920FB60F9211242F933F934F93D4
S11315B05F936F937F938F939F93AF93BF93EF93B7
S11315C0FF93E0910B01F0910C010995FF91EF91CC
S11315D0BF91AF919F918F917F916F915F914F9147
S11315E03F912F910F900FBE0F901F9018951F924F
S11315F00F920FB60F9211242F933F938F939F93C3
S1131600AF93BF938091730290917402A09175027D
S1131610B09176023091720223E0230F2D3720F42B
S11316200196A11DB11D05C026E8230F0296A11D38
S1131630B11D209372028093730290937402A0935D
S11316407502B09376028091770290917802A0910E
S11316507902B0917A020196A11DB11D809377029F
S113166090937802A0937902B0937A02BF91AF91DC
S11316709F918F913F912F910F900FBE0F901F90CC
S113168018953FB7F8948091770290917802A091D1
S11316907902B0917A0226B5A89B05C02F3F19F0B4
S11316A00196A11DB11D3FBFBA2FA92F982F8827DE
S11316B0820F911DA11DB11DBC01CD0142E0660F39
S11316C0771F881F991F4A95D1F708958F929F928B
S11316D0AF92BF92CF92DF92EF92FF926B017C01A7
S11316E00E94410B4B015C01C114D104E104F104DB
S11316F001F10E94DB0C0E94410BDC01CB01881933
S11317009909AA09BB09883E9340A105B10560F374
S113171021E0C21AD108E108F10888EE880E83E0BE
S1131720981EA11CB11CC114D104E104F10419F7E1
S1131730DBCFFF90EF90DF90CF90BF90AF909F9062
S11317408F9008958230910538F0880F991F880F83
S1131750991F05970197F1F70895789484B58260ED
S113176084BD84B5816084BD85B5826085BD85B541
S1131770816085BDEEE6F0E0808181608083E1E8F0
S1131780F0E0108280818260808380818160808328
S1131790E0E8F0E0808181608083E1EBF0E080812B
S11317A084608083E0EBF0E0808181608083EAE7FD
S11317B0F0E0808184608083808182608083808186
S11317C0816080838081806880831092C100089545
S11317D01F93CF93DF93182FEB0161E00E94700CED
S11317E0209711F460E004C0CF3FD10539F461E0E3
S11317F0812FDF91CF911F910C94AC0CE12FF0E07D
S1131800E358FF4FE491E330F9F048F4E130B9F0E4
S1131810E230A1F584B5806284BDC8BD34C0E73030
S1131820E9F0E83019F1E43049F5809180008062F4
S113183080938000D0938B00C0938A0024C084B529
S1131840806884BDC7BD1FC080918000806880937C
S11318508000D0938900C093880015C08091B000A7
S113186080688093B000C093B3000DC08091B00035
S113187080628093B000C093B40005C0C038D10525
S11318800CF0B5CFAFCFDF91CF911F910895833086
S113189081F028F4813099F08230A1F008958730E6
S11318A0A9F08830B9F08430D1F4809180008F7D24
S11318B003C0809180008F7780938000089584B561
S11318C08F7702C084B58F7D84BD08958091B00068
S11318D08F7703C08091B0008F7D8093B00008950E
S11318E0CF93DF9390E0FC01EF56FF4F2491FC016E
S11318F0EB55FF4F8491882361F190E0880F991F85
S1131900FC01ED53FF4FC591D491FC01E754FF4F07
S1131910A591B491611109C09FB7F894888120956D
S113192082238883EC912E230BC0623061F49FB72D
S1131930F8948881322F309583238883EC912E2B61
S11319402C939FBF06C08FB7F894E8812E2B288371
S11319508FBFDF91CF9108951F93CF93DF93282FEB
S113196030E0F901E358FF4F8491F901EF56FF4F3E
S1131970D491F901EB55FF4FC491CC23C1F0162F3C
S113198081110E94470CEC2FF0E0EE0FFF1FE7548B
S1131990FF4FA591B4919FB7F894111104C08C9195
S11319A0D095D82302C0EC91DE2BDC939FBFDF914E
S11319B0CF911F910895089597FB072E16F4009474
S11319C007D077FD09D00E94420D07FC05D03EF4F4
S11319D0909581959F4F0895709561957F4F0895D7
S11319E0A1E21A2EAA1BBB1BFD010DC0AA1FBB1F1F
S11319F0EE1FFF1FA217B307E407F50720F0A21B91
S1131A00B30BE40BF50B661F771F881F991F1A94FD
S1131A1069F760957095809590959B01AC01BD0127
S1131A20CF010895052E97FB1EF400940E94290D02
S1131A3057FD07D00E94F00C07FC03D04EF40C9421
S1131A40290D50954095309521953F4F4F4F5F4F4D
S1131A50089590958095709561957F4F8F4F9F4F16
S1131A600895EE0FFF1F0590F491E02D09940E9454
S1131A70560DA59F900DB49F900DA49F800D911DB0
S1131A8011240895AA1BBB1B51E107C0AA1FBB1F49
S1131A90A617B70710F0A61BB70B881F991F5A95F6
S1131AA0A9F780959095BC01CD010895A29FB0013E
S1131AB0B39FC001A39F700D811D1124911DB29F7E
S1111AC0700D811D1124911D0895F894FFCF1F
S1131ACEB80188015D014901FF880A880A726564BC
S1131ADE00677265656E0000000000AD0520076E9C
S1131AEE05FA0540055A054C050D0A006E616E0097
S10B1AFE696E66006F76660054
S9030000FC
